:100000000C9485000C94A2000C94A2000C94A20005
:100010000C94A2000C94A2000C94A2000C94A200D8
:100020000C94A2000C94A2000C94A2000C94A200C8
:100030000C94A2000C94A2000C94A2000C94A200B8
:100040000C94A2000C94A2000C94A2000C94A200A8
:100050000C94A2006C04EF04EF04EF04EF044B04D3
:10006000EF04EF04EF04EF04EF04EF04EF04770470
:100070006104EF0482048D049804A304AE04B9045F
:10008000C404CF04DA04E504EF04EF04EF045604DB
:10009000EF04EF04EF049003EF04DD03F303B10377
:1000A0009B03EF0414044004EF040904EF042A0442
:1000B000D203EF04EF04BC03A6033504FE03C70319
:1000C000EF04EF04EF04E8031F04EF04EF04EF0470
:1000D000EF04EF04EF049003EF04DD03F303B10337
:1000E0009B03EF0414044004EF040904EF042A0402
:1000F000D203EF04EF04BC03A6033504FE03C703D9
:10010000EF04EF04EF04E8031F0411241FBECFE542
:10011000D8E0DEBFCDBF10E0A0E6B0E0E6E1F9E157
:1001200002C005900D92AA3AB107D9F720E0AAEAD9
:10013000B0E001C01D92AF3AB207E1F70E94F605A8
:100140000C94890C0C9400008130A9F028F08230C6
:1001500009F1833071F13CC06130E9F118F062308F
:1001600039F003C08AE390E0089580E090E00895BC
:1001700089E390E00895613089F118F0623039F038
:1001800003C087E390E0089580E090E0089586E35F
:1001900090E00895613029F118F0623039F003C021
:1001A00084E390E0089580E090E0089583E390E098
:1001B00008956130C9F018F0623039F003C081E36E
:1001C00090E0089580E090E0089580E390E0089545
:1001D00080E090E008958BE390E0089588E390E05C
:1001E000089585E390E0089582E390E00895CF9329
:1001F000DF93D62FC42F60E00E94A400CC2319F017
:10020000C13071F018C0FC01408121E030E002C033
:10021000220F331FDA95E2F72095242320830BC0A9
:10022000FC01408121E030E002C0220F331FDA954B
:10023000E2F7242B2083DF91CF910895CF93DF93B2
:10024000D62FC42F61E00E94A400CC2319F0C13046
:1002500071F018C0FC01408121E030E002C0220FA3
:10026000331FDA95E2F72095242320830BC0FC018D
:10027000408121E030E002C0220F331FDA95E2F71F
:10028000242B2083DF91CF910895CF93C62F60E078
:100290000E94A400CC2319F0C13021F006C0FC015B
:1002A000108203C02FEFFC012083CF910895CF93DC
:1002B000C62F61E00E94A400FC01C083CF91089585
:1002C0009EB59F7B9EBD811107C08EB590E4699F4E
:1002D000B0011124682B6EBD0895811102C01DBCB0
:1002E0001CBC0895811103C086B597B5089580E0C0
:1002F00090E00895811108C008B605FE07C088B7D0
:10030000806288BF81E0089580E0089580E00895CC
:10031000FC0181B38F7B81BB1FBC1EBC9EB581815C
:10032000892B8EBD8EB5928140E4949F900111245B
:10033000282B2EBD29B7938130E2939FC001112451
:10034000822B89BF1DBC1CBC17BC16BC0895FC01C8
:100350002081211102C00E94880108954F925F926E
:100360006F927F928F929F92AF92BF92CF92DF92C5
:10037000EF92FF920F931F93CF93DF93EC018B01CA
:1003800088B7806288BF61E080E00E94600180E001
:100390000E947A018823D9F360E080E00E94600126
:1003A00080E00E946D0188B7806288BFC12CD12C8B
:1003B000760109C008B602FE06C088B7846088BF0F
:1003C0008FEFE81AF80A80E00E947A01882391F3FF
:1003D00080E00E947201C80ED91EE11CF11C61E090
:1003E00080E00E94600180E00E946D0188B7806219
:1003F00088BF06C008B602FE03C088B7846088BF05
:1004000080E00E947A018823A9F380E00E947201B3
:100410004C01A12CB12C2E01612C712CA70196014D
:10042000C301B2010E94FA0B0E94FF0A20E030E0F3
:100430004AE754E40E948D0B20E034E244E75BE499
:100440000E945E0AF8016083718382839383C701EF
:10045000B601680D791D8A1D9B1DA30192010E94A2
:10046000FA0B0E94FF0A20E030E04AE754E40E94C1
:100470008D0B20E034E244E75BE40E945E0AF80161
:100480006483758386839783DF91CF911F910F914A
:10049000FF90EF90DF90CF90BF90AF909F908F90A4
:1004A0007F906F905F904F900895811104C0CB01B1
:1004B000BA010E94AE010895813089F028F082309F
:1004C000C9F0833011F1089540E064E081E00E94BA
:1004D0001E0140E065E081E00E941E01089541E0B8
:1004E00064E081E00E941E0140E065E081E00E943E
:1004F0001E01089540E064E081E00E941E0141E099
:1005000065E081E00E941E01089541E064E081E021
:100510000E941E0141E065E081E00E941E010895F5
:10052000CF93C82F40E062E081E00E941E0140E0CE
:1005300061E081E00E941E016C2F80E00E94570163
:1005400041E060E081E00E941E018AE18A95F1F7B6
:1005500000C040E060E081E00E941E01CF9108955C
:1005600041E060E081E00E94F70041E062E081E06C
:100570000E94F70041E061E081E00E94F70041E065
:1005800066E081E00E94F70041E064E081E00E94C3
:10059000F70041E065E081E00E94F70061E080E063
:1005A0000E94450141E066E081E00E941E0183E077
:1005B0000E945C028EE30E94900288EB0E949002EF
:1005C0001092AC0080E40E9490021092AB0080EC8C
:1005D0000E9490028FE30E94900281E00E945C02E0
:1005E0001092AA000895CF93C82F41E062E081E005
:1005F0000E941E0140E061E081E00E941E016C2F1C
:1006000080E00E94570141E060E081E00E941E010D
:100610008AE18A95F1F700C040E060E081E00E9445
:100620001E01CF91089540E066E081E00E941E0126
:1006300085E38A95F1F7000041E066E081E00E94E1
:100640001E0108959F92AF92BF92CF92DF92EF92D8
:10065000FF920F931F93CF93DF93922EA32EB42E6E
:10066000C52ED62EE72EF82ED92FC0E030C08091AF
:10067000AC0088540E9490028091AB00805C0E9484
:1006800090020C2F10E0000F111F000F111F000F20
:10069000111F292D3A2D4B2D5C2D6D2D7E2D8F2D6B
:1006A0009D2F0E943C0C822F0E94F3028091AB0090
:1006B0008F5F8093AB00803448F08091AA00811155
:1006C00005C082E00E945C021092AB00CF5FC53093
:1006D00070F2DF91CF911F910F91FF90EF90DF901B
:1006E000CF90BF90AF909F900895E82F91E08091B8
:1006F000AA00811190E081E02091AB00293308F03D
:1007000080E0892B09F488C18E2F90E0FC01B0971E
:10071000EB35F10508F063C1E65DFF4F0C94290C41
:100720002CE732E141E152E16CE770E080E090E0DB
:100730000E94220354C12FE739E049E059E061E00B
:1007400070E080E090E00E94220349C12FE739E089
:1007500049E159E26FE470E080E090E00E942203FA
:100760003EC12FE739E449E459E461E470E080E0F8
:1007700090E00E94220333C12EE131E241E35EE3C7
:1007800060E470E080E090E00E94220328C12FE343
:1007900030E440E450E46FE370E080E090E00E94D9
:1007A00022031DC12FE732E04CE150E26FE770E019
:1007B00080E090E00E94220312C12EE331E441E484
:1007C00051E461E470E080E090E00E94220307C100
:1007D00023E03CE040E75CE063E070E080E090E034
:1007E0000E942203FCC02FE731E441E45EE360E0B5
:1007F00070E080E090E00E942203F1C021E031E04F
:100800004FE751E061E070E080E090E00E94220359
:10081000E6C02FE738E044E152E261E470E080E0B6
:1008200090E00E942203DBC02FE738E048E058E068
:100830006FE770E080E090E00E942203D0C021E6E4
:1008400031E549E455E463E470E080E090E00E9423
:100850002203C5C02FE732E04CE052E06FE770E0C2
:1008600080E090E00E942203BAC02FE439E449E41A
:1008700059E469EF70E080E090E00E942203AFC08D
:1008800021E431E44FE751E461E470E080E090E07E
:100890000E942203A4C023EC33E748E15EEC63EC42
:1008A00070E080E090E00E94220399C024E234E2EC
:1008B00044E254E264E270E080E090E00E942203AF
:1008C0008EC020E030E740E750E760E070E080E075
:1008D00090E00E94220383C020E030E040E050E03E
:1008E00060E070E080E090E00E94220378C028E1A0
:1008F00038E148E158E168E170E080E090E00E9472
:1009000022036DC02EE331E549E455E46EE370E067
:1009100080E090E00E94220362C024E432E44FE7CA
:1009200050E460E470E080E090E00E94220357C051
:1009300026E431E641E55EE460E470E080E090E0CA
:100940000E9422034CC021E439E449E459E466E3FF
:1009500070E080E090E00E94220341C028E134E191
:1009600042E15FE760E170E080E090E00E942203F6
:1009700036C02FE439E449E451E561E270E080E0FB
:1009800090E00E9422032BC02CE73AE449E459E4AA
:1009900061E370E080E090E00E94220320C021E04B
:1009A00039E449E259E16FE070E080E090E00E94B4
:1009B000220315C027E739E449E459E467E770E00A
:1009C00080E090E00E9422030AC02FE439E449E469
:1009D00059E46FE770E080E090E00E94220380918C
:1009E000AC0088540E9490028091AB00805C0E9411
:1009F000900280E00E94F3028091AB008F5F8093B1
:100A0000AB00803448F08091AA00811105C082E0DB
:100A10000E945C021092AB000895CF93DF93EC012B
:100A200003C00E947503219688818111FACFDF915E
:100A3000CF910895CF92DF92EF92FF920F931F9381
:100A4000CF93DF9300D000D01F92CDB7DEB76B01FC
:100A50007C0199235CF48DE20E947503F094E0948C
:100A6000D094C094C11CD11CE11CF11C1A821982C3
:100A7000FE01339683E0DF011D928A95E9F78E012E
:100A80000F5F1F4FC701B6012AE030E040E050E0A1
:100A90000E940A0C605DF80161938F01C22ED32E73
:100AA000E42EF52E1C141D041E041F045CF3D80153
:100AB0008E918D010E947503CE01019680179107DA
:100AC000B1F70F900F900F900F900F90DF91CF9193
:100AD0001F910F91FF90EF90DF90CF9008958F922C
:100AE0009F92AF92BF92CF92DF92EF92FF92CF93FD
:100AF000DF934B015C010E94D00A6B01E12CF12CC9
:100B0000C701B6010E941A058EE20E947503C70153
:100B1000B6010E94FF0A9B01AC01C501B4010E940D
:100B2000F109D0E01CC020E030E040E251E40E9436
:100B30008D0B6B017C010E94D00AC62F80E38C0FC5
:100B40000E9475036C2F70E080E090E00E94010B22
:100B50009B01AC01C701B6010E94F109DF5FD330F0
:100B600010F3DF91CF91FF90EF90DF90CF90BF9087
:100B7000AF909F908F900895CF93883078F4C82FCE
:100B800081E00E945C02C093AC0088EB8C0F0E9455
:100B900090021092AB0080E40E949002CF910895E1
:100BA000CF93DF93D0E013C08D2F0E94BC0583E06C
:100BB0000E945C02C0E008C080E48C0F0E9490029A
:100BC00080E00E94F302CF5FC034B0F3DF5FD83023
:100BD00058F30E94130381E00E945C021092AA0065
:100BE00080E00E94BC05DF91CF910895CF93DF9301
:100BF000CDB7DEB761970FB6F894DEBF0FBECDBF9D
:100C00000E941908FE01319681E1DF011D928A954B
:100C1000E9F7CE0101960E9426086A857B858C85BE
:100C20009D8520E030E040EA50E40E945E0AAB017E
:100C3000BC01CE0101960E949708BFEF21EE84E02F
:100C4000B15020408040E1F700C00000E2CFFC013D
:100C500087B3886087BB13BE23B79181990F990F23
:100C6000990F922B906493BF23B793819295907FB5
:100C7000922B906293BF8281843069F018F48330A4
:100C800030F012C09AEF980F943050F00DC093B727
:100C9000892B83BF09C093B78150892B83BF04C0C0
:100CA00093B78250892B83BF1CBE8381882319F0A0
:100CB0008130A1F030C060858FEF689FB0011124B2
:100CC00080E090E00E94FF0A20E030E048EC52E42F
:100CD0000E945E0A0E94D00A6CBF1DC0608570E051
:100CE00080E090E00E94010B9B01AC0160E070E0AD
:100CF00088EC92E40E94F10920E030E04FE753E4F1
:100D00000E948D0B20E030E048EC52E40E945E0A25
:100D10000E94D00A6CBF12BE08958F929F92AF922C
:100D2000BF92CF92DF92EF92FF92CF93DF93EC01CD
:100D30008881813019F0823029F007C081B3806248
:100D400081BB03C081B3806181BB1FBC1EBC8FB55A
:100D500082608FBD9EB58981880F880F880F892B8F
:100D600080618EBD8881813019F0823051F010C0D1
:100D70009FB58B818295880F880F807C892B806836
:100D80008FBD9FB58B818295807F892B80628FBDBF
:100D90008A81843069F018F4833030F012C09AEF01
:100DA000980F943050F00DC09EB5892B8EBD09C0B0
:100DB0009EB58150892B8EBD04C09EB58250892B73
:100DC0008EBDAE81BF8120E034E244EF50E00E944E
:100DD0002F0C6B017C016C817D8180E090E00E9492
:100DE000FF0A20E030E04AE754E40E948D0B4B01FB
:100DF0005C01C701B6010E94FF0AA50194010E948F
:100E00005E0A20E030E040E85FE30E94F1090E94C2
:100E1000D00A7093AE006093AD0077BD66BD888147
:100E2000813021F0823009F447C08BC08B81882348
:100E300019F08130D1F085C028858091AD00909166
:100E4000AE00289FB001299F700D112480E090E032
:100E50000E94FF0A20E030E048EC52E40E945E0A63
:100E60000E94D00A7BBD6ABD6CC0688570E080E0DE
:100E700090E00E94010B9B01AC0160E070E088EC07
:100E800092E40E94F1096B017C016091AD007091C8
:100E9000AE0080E090E00E94FF0AA70196010E9448
:100EA0008D0B20E030E048EC52E40E945E0A0E9484
:100EB000D00A7BBD6ABD45C08B81882319F0813083
:100EC000D1F03FC028858091AD009091AE00289F61
:100ED000B001299F700D112480E090E00E94FF0A6C
:100EE00020E030E048EC52E40E945E0A0E94D00A02
:100EF00079BD68BD26C0688570E080E090E00E9402
:100F0000010B9B01AC0160E070E088EC92E40E9470
:100F1000F1096B017C016091AD007091AE0080E041
:100F200090E00E94FF0AA70196010E948D0B20E02D
:100F300030E048EC52E40E945E0A0E94D00A79BD7B
:100F400068BD1DBC1CBCDF91CF91FF90EF90DF907E
:100F5000CF90BF90AF909F908F900895FC0181B388
:100F6000806881BB15BC25B59181990F990F990FA8
:100F7000922B906495BD23B793819295907F922B8D
:100F8000906293BF928188EF890F823018F085B507
:100F9000892B85BD13BC8381882319F08130A1F092
:100FA00030C060858FEF689FB001112480E090E031
:100FB0000E94FF0A20E030E048EC52E40E945E0A02
:100FC0000E94D00A63BD1DC0608570E080E090E0A3
:100FD0000E94010B9B01AC0160E070E088EC92E4A0
:100FE0000E94F10920E030E04FE753E40E948D0BAE
:100FF00020E030E048EC52E40E945E0A0E94D00AF1
:1010000063BD14BC0895FC019081933018F49130B5
:1010100020F007C0933049F00895CF010E942706C1
:101020000895CF010E948D060895CF010E94AE075A
:1010300008950E94B0020E94D00580EA90E00E94CC
:10104000030887E990E00E94A70108958F929F927C
:10105000AF92BF92CF92DF92EF92FF920F931F93C6
:10106000CF93DF93CDB7DEB728970FB6F894DEBFE6
:101070000FBECDBF8C0119821A821B821C821D8279
:101080001E821F821886AE014F5F5F4F68E070E0DE
:1010900080E00E945502CD80DE80EF80F884F80168
:1010A000C186D286E386F48689809A80AB80BC8034
:1010B00081829282A382B482A5019401C701B60104
:1010C0000E94F109F8016583768387839087A701E1
:1010D000960160E070E080E89FE30E945E0AF801FC
:1010E000658776878787908B20E030E048EC52E474
:1010F000C501B4010E948D0BA70196010E945E0AF2
:101100000E94D00AF801608328960FB6F894DEBFDB
:101110000FBECDBFDF91CF911F910F91FF90EF9048
:10112000DF90CF90BF90AF909F908F900895AF9237
:10113000BF92CF92DF92EF92FF920F931F93CF93C4
:10114000DF93CDB7DEB7EC970FB6F894DEBF0FBED6
:10115000CDBF5C016A017B010E94D00580E00E9446
:10116000BC058CE0E0E6F0E0DE01119601900D9206
:101170008A95E1F7FE013D9683E0DF011D928A9595
:10118000E9F7CE0101960E940D05F501658576858A
:10119000878590890E946F0585E0EBE9F0E0DE012C
:1011A000509601900D928A95E1F7CE0140960E94EB
:1011B0000D0581E00E94BC0587E0EFE6F0E0DE016E
:1011C000559601900D928A95E1F7FE017C9688E094
:1011D000DF011D928A95E9F7CE0145960E940D0523
:1011E000F501608170E080E090E00E941A05809136
:1011F0007E0090917F009DA38CA3809180009091B0
:1012000081009FA38EA318A6CE0184960E940D058F
:1012100086E00E94BC0510E04EC020E430E44EE7BA
:1012200052E062E070E080E090E00E9422031B5FE9
:1012300000E00CC022E032E042E052E062E070E008
:1012400080E090E00E9422031B5F0F5FD5011196A2
:101250006D917D918D919C911497A70196010E94AB
:101260005E0A0E94D00A061728F322E032E04EE719
:1012700050E460E470E080E090E00E9422031B5F95
:1012800000E00CC020E430E440E450E460E470E0AE
:1012900080E090E00E9422031B5F0F5FF5016581F3
:1012A000768187819085A70196010E945E0A0E943F
:1012B000D00A061738F3183708F4AFCF85E00E943C
:1012C000BC0520E03EE348E05CE16AE270E080E0DB
:1012D00090E00E94220310E00BC028E038E048E0D4
:1012E00058E068E070E080E090E00E9422031F5F19
:1012F000D50111966D917D918D919C911497A701C7
:1013000096010E945E0A0E94D00A161730F328E068
:1013100038E048E058E068E070E080E090E00E944B
:10132000220310E00BC028E038E048E058E068E015
:1013300070E080E090E00E9422031F5FF50165816C
:10134000768187819085A70196010E945E0A0E949E
:10135000D00A161740F32AE23CE148E05EE360E081
:1013600070E080E090E00E94220384E00E94BC05CF
:1013700088E0E3E8F0E0DE01999601900D928A950D
:10138000E1F7FE01F19687E0DF011D928A95E9F70A
:10139000CE0189960E940D05F501618572858385D0
:1013A00094850E946F0585E0E2E9F0E0DE01D896C1
:1013B00001900D928A95E1F7CE01C8960E940D0525
:1013C000EC960FB6F894DEBF0FBECDBFDF91CF9184
:1013D0001F910F91FF90EF90DF90CF90BF90AF9053
:1013E00008955058BB27AA270E94090A0C94530B52
:1013F0000E94450B38F00E944C0B20F039F49F3FBF
:1014000019F426F40C94420B0EF4E095E7FB0C94CF
:101410003C0BE92F0E94640B58F3BA17620773075D
:101420008407950720F079F4A6F50C94860B0EF44A
:10143000E0950B2EBA2FA02D0B01B90190010C01E4
:10144000CA01A0011124FF27591B99F0593F50F4FC
:10145000503E68F11A16F040A22F232F342F442754
:10146000585FF3CF469537952795A795F04053954C
:10147000C9F77EF41F16BA0B620B730B840BBAF01C
:101480009150A1F0FF0FBB1F661F771F881FC2F787
:101490000EC0BA0F621F731F841F48F4879577959B
:1014A0006795B795F7959E3F08F0B0CF9395880F55
:1014B00008F09927EE0F9795879508950E94720A74
:1014C0000C94530B0E944C0B58F00E94450B40F0BB
:1014D00029F45F3F29F00C943C0B51110C94870BBD
:1014E0000C94420B0E94640B68F39923B1F35523CB
:1014F00091F3951B550BBB27AA2762177307840727
:1015000038F09F5F5F4F220F331F441FAA1FA9F3BC
:1015100035D00E2E3AF0E0E832D091505040E695AA
:10152000001CCAF72BD0FE2F29D0660F771F881F0B
:10153000BB1F261737074807AB07B0E809F0BB0BFE
:10154000802DBF01FF2793585F4F3AF09E3F510512
:1015500078F00C943C0B0C94870B5F3FE4F3983EBF
:10156000D4F3869577956795B795F7959F5FC9F7FB
:10157000880F911D9695879597F90895E1E0660F7C
:10158000771F881FBB1F621773078407BA0720F0F5
:10159000621B730B840BBA0BEE1F88F7E09508955E
:1015A0000E946C0B88F09F5798F0B92F9927B7517C
:1015B000B0F0E1F0660F771F881F991F1AF0BA95F7
:1015C000C9F714C0B13091F00E94860BB1E00895C4
:1015D0000C94860B672F782F8827B85F39F0B93FB6
:1015E000CCF3869577956795B395D9F73EF49095AA
:1015F0008095709561957F4F8F4F9F4F0895E89428
:1016000009C097FB3EF490958095709561957F4F4A
:101610008F4F9F4F9923A9F0F92F96E9BB279395F8
:10162000F695879577956795B795F111F8CFFAF408
:10163000BB0F11F460FF1BC06F5F7F4F8F4F9F4F39
:1016400016C0882311F096E911C0772321F09EE897
:10165000872F762F05C0662371F096E8862F70E0FD
:1016600060E02AF09A95660F771F881FDAF7880FD7
:101670009695879597F9089597F99F6780E870E0A8
:1016800060E008959FEF80EC089500240A941616F8
:10169000170618060906089500240A941216130660
:1016A000140605060895092E0394000C11F48823EE
:1016B00052F0BB0F40F4BF2B11F460FF04C06F5F0A
:1016C0007F4F8F4F9F4F089557FD9058440F551FE0
:1016D00059F05F3F71F04795880F97FB991F61F0B4
:1016E0009F3F79F087950895121613061406551F2B
:1016F000F2CF4695F1DF08C0161617061806991F97
:10170000F1CF86957105610508940895E894BB278B
:1017100066277727CB0197F908950E94A00B0C94B8
:10172000530B0E94450B38F00E944C0B20F0952380
:1017300011F00C943C0B0C94420B11240C94870B6D
:101740000E94640B70F3959FC1F3950F50E0551FF5
:10175000629FF001729FBB27F00DB11D639FAA2706
:10176000F00DB11DAA1F649F6627B00DA11D661F55
:10177000829F2227B00DA11D621F739FB00DA11D76
:10178000621F839FA00D611D221F749F3327A00D30
:10179000611D231F849F600D211D822F762F6A2FCC
:1017A00011249F5750409AF0F1F088234AF0EE0F31
:1017B000FF1FBB1F661F771F881F91505040A9F75E
:1017C0009E3F510580F00C943C0B0C94870B5F3FBF
:1017D000E4F3983ED4F3869577956795B795F7959A
:1017E000E7959F5FC1F7FE2B880F911D9695879512
:1017F00097F90895DB018F939F930E942F0CBF915F
:10180000AF91A29F800D911DA39F900DB29F900D4F
:1018100011240895052E97FB1EF400940E94210CBC
:1018200057FD07D00E94580C07FC03D04EF40C94CF
:10183000210C50954095309521953F4F4F4F5F4F6C
:10184000089590958095709561957F4F8F4F9F4F2C
:101850000895EE0FFF1F0590F491E02D09940E946A
:101860007A0CA59F900DB49F900DA49F800D911DA3
:101870001124089597FB10F8169400080F93083070
:1018800098F00850232F342F452F562F672F782F8D
:10189000892F902DF4CF0594979587957795679527
:1018A00057954795379527950A95AAF70F9108956B
:1018B000A1E21A2EAA1BBB1BFD010DC0AA1FBB1F54
:1018C000EE1FFF1FA217B307E407F50720F0A21BC6
:1018D000B30BE40BF50B661F771F881F991F1A9433
:1018E00069F760957095809590959B01AC01BD015D
:1018F000CF010895A29FB001B39FC001A39F700DB7
:10190000811D1124911DB29F700D811D1124911D07
:061910000895F894FFCFDA
:101916004672657175656E63793D0000000000448E
:101926007574793D000000000000000000002025CD
:101936000000002054696D653D00000000000000B5
:101946000000206D73000000020000206B487A0042
:0A1956000001020100010400190065
:00000001FF
